:030000000208975C
:0C089700787FE4F6D8FD75810D020800A2
:10086900E4F50AF50BC3E50B9FE50A9E501FE4F575
:100879000CF50D050DE50D7002050CB4FBF5E50C45
:0E088900B404F0050BE50B70DC050A80D822E4
:10080000A2D0E4337508005407F509640345087065
:100810000B7F14FE12086975A00680E4E5096405E3
:1008200045086008E50964014508700575A00A805F
:10083000CFE509640245086018E5096406450860CB
:1008400010E509640445086008E509640745087077
:100850000C75A0097F0A7E0012086980A37F1E7EA6
:0908600000120869E4F5A080977C
:00000001FF
