:0300000002088F64
:0C088F00787FE4F6D8FD758109020800AE
:0C0863007F32FE12086F75A00F85A08088
:10086F00E4FDFCC3ED9FEC9E5015E4FBFA0BBB00BF
:0F087F00010ABA04F8BBFBF50DBD00010C80E4C3
:01088E002247
:10080000E5905403750800F50964014508701275F8
:10081000A00575800512086375A00685A0801208E2
:100820006FE50964024508701275A00585A0801265
:10083000086375A00985A08012086FE50964034567
:1008400008700C75A00585A0807F32FE12086FE548
:1008500009450870AB75A00A85A0807F32FE12089A
:030860006F809D09
:00000001FF
